:100000000C94DE0D0C94060E0C94060E0C94060E49
:100010000C94060E0C94060E0C94060E0C94060E10
:100020000C94060E0C94C6140C94060E0C94AB1291
:100030000C94060E0C94060E0C94060E0C94060EF0
:100040000C94060E0C94060E0C94060E0C94060EE0
:100050000C94060E0C94060E0C94060E0C94060ED0
:100060000C94800E0C94060E8A328D3290329432AB
:1000700097329A329D32A132C0906048403024209D
:1000800018100C08060403020194109F10AE10BA59
:1000900010C410D310E010ED10FB100A1119112636
:1000A00011311141114A11571162116D11761187E9
:1000B000119711A611AD11B511BE11C811D311DBE5
:1000C00011E811EF11F611FD1104120B12121219A1
:1000D00012201227122E12341239123F12451249E1
:1000E000124D12521256125B125F126212651269A1
:1000F000126D127112751279127D1280128312879D
:100100001252128B128F12931297129B129F12A3EC
:1001100012A712AB12AF12B312B712BB12BF12C3A7
:1001200012C712CB12CF12D312D712DB12E412ED88
:1001300012F612FA12FE12021306130A130E13120B
:100140001316131A131E13221326132A132E1332F7
:100150001336133A133E13421346134A134E1397A2
:1001600012521356135A135E13621366136A136EF8
:100170001356137213761379137D136A1381138543
:100180001389138D139113951399139D13A113A51F
:1001900013A913AD13B113B513B913BD13C113C50F
:1001A00013C913CD13D113D513D913DD13E113E5FF
:1001B00013E913ED13F213F613FA136A13FE130285
:1001C0001406140A140E14121416141A141E1422EF
:1001D0001426142A142E14321436143A143E1442DF
:1001E0001446144A144E14521456145A145E1462CF
:1001F0001466146A146E1472147414771479147CCF
:10020000147E1480148314851488148A148D147237
:10021000148F14771492147C147E149514831498FC
:100220001488149B148D149E14A214A314A714A94B
:1002300014AB14AD14AF14B314B714BB14BF14C370
:1002400014C714CB14CF14D314D714DB14DF14E366
:1002500014E714EB14EF14F314F714FB14FF140356
:100260001507150B150F15131517151B151F15233E
:100270001527152B152F15331537153B153F15432E
:100280001547154A154D1550155315571552135B43
:10029000155F155555F5F5B5B5D5D555AB555995EA
:1002A00095090949924952494919D56B6B5B5B77AE
:1002B00077B76D57576F6FDF7611A9C16F01D10006
:1002C0000011491111494901050101495205014136
:1002D00029410441A44141000092401010101250E5
:1002E000109090901210120C49104010481090007D
:1002F00000494911115C5C555544441F5F4545D583
:10030000D577774264FFFF00004848015500491047
:10031000F084A448101141491455555858A5627FDE
:10032000007F0081FF81FF7F007F0081FF81FF7FD1
:10033000007F0081FF81FF7F007F0081FF81FF7FC1
:100340000081FF7F0081FF7F0081FF7F0081FF7FB1
:100350000081FF7F0081FF7F0081FF7F0081FFC15F
:10036000FFC1FF7F00000081FF0000000058000077
:100370000000005800CEFFA8FF0000580000001346
:10038000002C005D00FCFF2000CBFFA6FF81FF7565
:100390000020009AFFCBFF6900CBFF5D00CBFF5828
:1003A000009BFF6B00A1FF5800A8FF3200DAFF415D
:1003B00000A8FF6500A1FF650081FF3F00E1FF4647
:1003C00000ACFF540090FF54009EFF70009EFF366B
:1003D00000BAFF7F00ACFF7F0090FF5400ACFF002D
:1003E000000100030007000F003F007F00FF00FF37
:1003F00003FF0FFF3FFFFF00000100030007000F96
:10040000003F007F00FF00FF03FF0FFF3FFFFF00E3
:10041000000100030007000F003F007F00FF00FF06
:1004200003FF0FFF3FFFFF00000100050007000F63
:10043000003F007F00FF00FF03FF0FFF3FFFFF00B3
:1004400000010005000D000F003F007F00FF00FFCE
:1004500003FF0FFF3FFFFF00000100090015002D03
:10046000003F007F00FF00FF03FF0FFF3FFFFF0083
:10047000000100110029002D007D007F00FF00FF1A
:1004800003FF0FFF3FFFFF0000010011002900558F
:1004900000DD00FD00FF00FF03FF0FFF3FFFFF0037
:1004A000000100210091002901AD01DD02BD03FF23
:1004B00003FF0FFF3FFFFF00000100410011014952
:1004C000025505AD066D0B7D0FFF0FFF3FFFFF00CF
:1004D000000100810021029108A9145515AD16DD17
:1004E0002EFD3EFF3FFFFF0000010001014108110A
:1004F000112929A9525555ADADDDDDFDFDFFFF00E8
:1005000000010002000300040005000600070008C7
:100510000009000A000B00000000000200020004B5
:10052000000500050007000700090009000B000096
:10053000000000020003000300050005000700079B
:100540000009000A000A0000000100010003000386
:1005500000050005000700080008000A000A000066
:10056000000000020002000400040006000700076B
:1005700000090009000B0000000000020002000456
:1005800000050005000700070009000A000A000036
:10059000000000020003000300050005000700083A
:1005A0000008000A000A0000000100010003000327
:1005B00000050006000600080008000A000A000006
:1005C0000000000300030004000400070007000708
:1005D0000009000A000A00000000000300030003F5
:1005E0000005000600070007000A000A000A0000D4
:1005F00000000002000200040004000700070007DA
:1006000000090009000900000000000300030003C6
:100610000005000500070007000A000A000A0000A4
:1006200000010001000400040005000500070008A7
:100630000008000B000B0000000100010004000492
:1006400000040006000700080008000B000B000073
:10065000000100010003000300050005000700077A
:10066000000A000A000B0000000100010003000363
:1006700000060006000700080008000B000B000041
:10068000000000020002000400050005000500094A
:100690000009000A000B0000000000020002000533
:1006A0000005000500070007000900090009000017
:1006B0000000000300030003000500050008000817
:1006C0000008000A000A0000000000030003000404
:1006D00000040006000600080008000A000A0000E6
:1006E00000010001000300040005000500070008E8
:1006F0000008000A000A00000001000100010005D6
:1007000000050005000700080008000800080000B8
:1007100000010001000300030003000700070008B8
:1007200000080008000800000000000200020004A9
:1007300000040006000600080008000A000A00AADB
:1007400000E3005501C701AA028E03000455051CF1
:10075000070008AA0A001055150020AA2A004055D3
:10076000550080FFFF9302BF021F033F035F037F1B
:10077000039F03BF03DF03FF0417052F0547055F32
:100780000577058F05A705BF05D705EF0507061FE8
:100790000637064F0667067F062F059706AF06C782
:1007A00006DF06F7060F0727073F07101010160988
:1007B000090906101010160202020710101016097F
:1007C00002040F101010160102010610101012047E
:1007D0000A0F02101010170406010610101013045F
:1007E00007050702030302020E1E0C0000001C1482
:1007F000141700000103070F1F1F0000000E151142
:10080000110E000105090D1115191D2125292C3086
:1008100034383C4044484C5054585C6064686C70B8
:1008200074787C8083878B8F93979B9FA3A7ABAFB4
:10083000B3B7BBBFC3C7CBCFD3D6DADEE2E6EAEEAF
:10084000F2F6FAFEFAF6F2EEEAE6E2DEDAD6D3CF16
:10085000CBC7C3BFBBB7B3AFABA7A39F9B97938FC8
:100860008B8783807C7874706C6864605C585450AB
:100870004C4844403C3834302C2925211D19151191
:100880000D090501FEFEFEFEFEFEFEFEFEFEFEFE64
:10089000FEFEFEFEFEFEFEFEFEFEFEFEFEFEFEFE78
:1008A000FEFEFEFEFEFEFEFEFEFEFEFEFEFEFEFE68
:1008B000FEFEFEFEFEFEFEFEFEFEFEFEFEFEFEFE58
:1008C000FEFEFEFE01010101010101010101010124
:1008D0000101010101010101010101010101010108
:1008E00001010101010101010101010101010101F8
:1008F00001010101010101010101010101010101E8
:1009000001010101FE01030507090B0D0F1113156C
:1009100017191B1D1F21232527292B2D2F31333577
:1009200037393B3D3F41434547494B4D4F51535567
:1009300057595B5D5F61636567696B6D6F71737557
:1009400077797B7D7F80828486888A8C8E90929452
:1009500096989A9C9EA0A2A4A6A8AAACAEB0B2B447
:10096000B6B8BABCBEC0C2C4C6C8CACCCED0D2D437
:10097000D6D8DADCDEE0E2E4E6E8EAECEEF0F2F427
:10098000F6F8FAFCFE0180868C92989EA4AAB0B676
:10099000BBC1C6CBD0D4D9DDE1E5E9ECEFF2F4F789
:1009A000F9FAFCFDFDFEFEFEFDFDFCFAF9F7F4F29E
:1009B000EFECE9E5E1DDD9D4D0CBC6C1BBB6B0AA36
:1009C000A49E98928C868079736D67615B554F49C0
:1009D000443E39342F2B26221E1A1613100D0B08F5
:1009E00006050302020101010202030506080B0DC0
:1009F0001013161A1E22262B2F34393E44494F5508
:100A00005B61676D737980808A949DA7B1BAC2CB10
:100A1000D2DAE0E6ECF1F5F8FBFCFEFEFEFDFBF9B8
:100A2000F6F3EFEAE6E0DBD5CFC9C3BDB6B0AAA4C2
:100A30009F99948F8B8783807D7B79787776767684
:100A4000767778797B7C7E808183848687888989A4
:100A5000898988878684827F7C7874706B66605B06
:100A6000554F49423C36302A241F1915100C0906EF
:100A700004020101010304070A0E13191F252D3476
:100A80003D454E58626B7580808F9EACBAC7D3DEF1
:100A9000E7EFF5FAFDFEFEFCF9F4EFE8E1D9D1C984
:100AA000C2BAB3ADA8A3A09E9E9EA0A3A8ADB3BAA0
:100AB000C2C9D1D9E1E8EFF4F9FCFEFEFDFAF5EF89
:100AC000E7DED3C7BAAC9E8F8070615345382C21C6
:100AD00018100A0502010103060B10171E262E36F8
:100AE0003D454C52575C5F6161615F5C57524C45BC
:100AF0003D362E261E17100B0603010102050A10B3
:100B000018212C38455361708080909FADB9C3C9BE
:100B1000CCCCC9C4BCB3A9A0978F8A87878A909987
:100B2000A4B0BECCD9E5F0F7FCFEFCF7F0E5D9CCDB
:100B3000BEB0A499908A87878A8F97A0A9B3BCC4B6
:100B4000C9CCCCC9C3B9AD9F90806F6052463C36CA
:100B50003333363B434C565F6870757878756F66F3
:100B60005B4F4133261A0F08030103080F1A26337F
:100B7000414F5B666F7578787570685F564C433B84
:100B8000363333363C4652606F800101010305085D
:100B90000D131B25313E4D5D6E8091A3B4C4D3E08F
:100BA000EBF3FAFDFEFCF8F1E7DCCEBFB09F8E7DE3
:100BB0006C5C4C3E31251B130C0602010101010146
:100BC0000101010101010101010101010101020213
:100BD00003030405060707060503010101010101DE
:100BE00001010101010101010101010101010101F5
:100BF00001010101010101010101010101010101E5
:100C000001010101010101010101010101020509C7
:100C1000111B293A4D637A92A9BFD3E4F1FAFEFE83
:100C2000F9F0E3D4C4B2A192857B7472747B85928F
:100C3000A1B2C4D4E3F0F9FEFEFAF1E4D3BFA99265
:100C40007A634D3A291B11090502010101010101D5
:100C50000101010101010101010101010101010184
:100C60000101010101010101010101010101010174
:100C70000101010101010101010101010101010164
:100C80000101010101010101010101013F39332D80
:100C900027211B150F090301070D13191F252B31E0
:100CA000373D43494F555B61676D737980868C9200
:100CB000989EA4AAB0B6BCC2C8CED4DAE0E6ECF2E4
:100CC000F8FEFCF6F0EAE4DED8D2CCC6C0C6CCD240
:100CD000D8DEE4EAF0F6FCFEF8F2ECE6E0DAD4CE98
:100CE000C8C2BCB6B0AAA49E98928C868079736D57
:100CF00067615B554F49433D37312B251F19130D54
:100D0000070103090F151B21272D33393F80787008
:100D100068605850484038302921191109010911DB
:100D20001921293038404850586068707880878F82
:100D3000979FA7AFB7BFC7CFD6DEE6EEF6FEF6EEBB
:100D4000E6DED6CFC7BFB7AFA79F978F8780878FC5
:100D5000979FA7AFB7BFC7CFD6DEE6EEF6FEF6EE9B
:100D6000E6DED6CFC7BFB7AFA79F978F87807870D3
:100D7000686058504840383029211911090109117B
:100D80001921293038404850586068707880010235
:100D900003030405060708090A0B0C0E0F101213B3
:100DA0001517181A1C1E20222426292B2E31343701
:100DB0003A3D4044484C5054585D62676C71777DB1
:100DC000838A91989FA7AFB7C0C9D3DDE8F3FEF33C
:100DD000E8DDD3C9C0B7AFA79F98918A837D7771AB
:100DE0006C67625D5854504C4844403D3A3734314A
:100DF0002E2B29262422201E1C1A18171513121018
:100E00000F0E0C0B0A090807060504030302010173
:100E10000C16202930383E444A4F54585C606366B3
:100E2000696C6E7072747677787A7B7C7D7E7F8059
:100E30008081828384858788898B8D8F9193969911
:100E40009C9FA3A7ABB0B5BBC1C7CFD6DFE9F3FE6C
:100E5000F3E9DFD6CFC7C1BBB5B0ABA7A39F9C99C1
:100E60009693918F8D8B89888785848382818080FA
:100E70007F7E7D7C7B7A7877767472706E6C696623
:100E800063605C58544F4A443E38302920160C01A8
:100E9000E5CDB8A4938274665A4F453C332C262086
:100EA0001A16120E0B0907050402020101010102C4
:100EB000020304050608090B0D0E10121416191B67
:100EC0001D1F222427292C2E313336393B3E414425
:100ED00046494C4F5254575A5D606366686B6E7159
:100EE00074777A7D808285888B8E9194979A9DA065
:100EF000A3A6A9ABAEB1B4B7BABDC0C3C6C9CCCF67
:100F0000D2D5D8DBDEE1E3E6E9ECEFF2F5F8FBFE63
:100F1000E51426364553606C77828B949CA3AAB166
:100F2000B7BCC1C6CACED2D5D9DCDEE1E3E5E7E97C
:100F3000EBECEEEFF0F2F3F4F5F5F6F7F8F8F9F97B
:100F4000FAFAFBFBFBFCFCFCFDFDFDFDFDFEFEFEDD
:100F5000FEEBD9C9BAAC9F93887D746B635C554E28
:100F600048433E3935312D2A2623211E1C1A1816D6
:100F7000141311100F0D0C0B0A0A090807070606B7
:100F80000505040404030303020202020201010135
:100F90000114FEE6BD8B582D0F0102112946637C1A
:100FA0008E989994897B6E625B58595E666F7981E1
:100FB000878B8C8B8986838180808183878A8E91C1
:100FC0009496979898989999999A9C9D9FA1A3A572
:100FD000A7A8AAABACADAEAFB0B1B3B4B6B7B9BA0F
:100FE000BCBDBEC0C1C2C3C5C6C7C8CACBCDCECFAB
:100FF000D1D2D3D5D6D7D9DADBDDDEDFE1E2E3E546
:10100000E6E7E9EAEBEDEEEFF1F2F3F5F6F7F9FAE0
:10101000FBFDFE43557398BDDDF3FEFEF4E4D0BD49
:10102000ACA09A9A9FA8B2BDC6CCCFCFCDC8C2BD46
:10103000B8B5B3B3B4B7BABDBFC1C2C2C1C0BEBDFB
:10104000BBBABABABABBBCBDBEBEBEBEBEBEBDBDDB
:10105000BCBCBCBCAA8C6742220C01010B1B2F42FA
:10106000535F656560574D423933303032373D420A
:10107000474A4C4C4B484542403E3D3D3E3F414235
:101080004445454545444342414141414141424235
:101090004343434353796E63204C6174636800504B
:1010A0006F6C792053657175656E6365720041726E
:1010B000706567676961746F720042504D204D65BD
:1010C0007465720043432026204E52504E204B6ED2
:1010D0006F620043686F7264204D656D6F727900B6
:1010E000436C6F636B20536F7572636500436C6F65
:1010F000636B2044697669646572004368616E6E53
:10110000656C2046696C746572004368616E6E653B
:101110006C204D6572676572005573657220507260
:101120006F6772616D0044697370617463686572A2
:10113000004472756D732047656E657261746F72DD
:10114000004561722047616D65004D696469204DFD
:101150006F6E69746F720052616E646F6D697A654B
:101160007200436F6E74726F6C6C65720053706CBA
:1011700069747465720044656C6179202F20537422
:1011800072756D6D6572005363616C652050726F8E
:10119000636573736F720053746570205365717566
:1011A000656E636572004343204C464F0054616E88
:1011B000707572610053657474696E6773004E6F69
:1011C0007465204E756B650053797365782044759E
:1011D0006D7000217265736574210076312E3320A5
:1011E0004D69646942756400736E644F666600728F
:1011F0007374437472006E6F744F6666006F6D6E29
:101200004F6666006F6D6E694F6E006D6F6E6F4F4B
:101210006E00706F6C794F6E00737973782E2E00AC
:101220002E737973782E002E2E7379737800737471
:101230006172740073746F7000636F6E742E00724D
:10124000657365740063686E00616C6C0072657331
:1012500074007469650065786974006F6666006F74
:101260006E006E6F0079657300784645006C65749A
:1012700000666C7400686C64002E35730031730076
:10128000327300726563006475620072756E00628D
:10129000706D0067727600616D7400746170007328
:1012A00077670073686600707368006C6167006838
:1012B000756D006D6E6B0076616C006E756D0074FF
:1012C000797000636323006E7270006D696E006D4B
:1012D0006178006C766C0072737400736F7272794F
:1012E0002E2E2E007065726665637421006E6F7419
:1012F0002062616421006D6F640070746E0065751A
:101300006300696E740065787400636C6B007074C0
:101310003100707432007074330070743400636391
:1013200031006363320063633300636334006363DB
:101330003500636336006363370063633800696EAA
:1013400070006F75740073706C006C6F770075704F
:1013500070006E6F740076656C0023633100236348
:10136000320063796300706F6C00726E6400737496
:101370006B006469720075700064776E0075266496
:10138000006F637400647572006C61740064697648
:101390000064656E00342F3100332F3100322F315D
:1013A00000332F3200312F3100332F3400322F33EE
:1013B00000312F3200332F3800312F3300312F34DA
:1013C00000312F3600312F38002F3132002F3136C7
:1013D000002F3234002F3332002F3438002F3936AB
:1013E00000726570007472730064706C006F6666E2
:1013F0005F006D697200616C740074726B00726FD3
:101400006F0073636C00766F690068726D006368CB
:101410007200696F6E00646F7200706872006C79A0
:1014200064006D69780061656F006C6F6300626DC8
:101430006A00626D6E00706D6A00706D6E006268A9
:1014400072007368720072757000746F640072616C
:1014500067006B6161006D6567006D6C6B006470A7
:101460006B00666C6B006A61700067616D00776885
:101470006C00430043230044004423004500460021
:101480004623004700472300410041230042004417
:1014900062004562004762004162004262006B6583
:1014A0007900007374700001000200030004006101
:1014B0006D3100616D3200616D3300616D34006328
:1014C000653100636532006365330063653400771E
:1014D00066310077663200776633007766340072D3
:1014E0007431007274320072743300727434007399
:1014F0007931007379320073793300737934007471
:1015000072690073717200726D700073696E00739E
:1015100069320073693300736935006767310067AA
:10152000673200627431006274320073703100738C
:101530007032006C7031006C703200727331007266
:10154000733200732668007061006D61006E69007F
:101550007361007265730066726500636864007091
:10156000726700F00021020003204343232044441B
:10157000232045204646232047472320414123205E
:1015800042002D3031323334353637380076200082
:10159000000000000000000000000000000000004B
:1015A0000000000000000000009B20000000000080
:1015B0000080209E200000F62000000000000000B7
:1015C000000100F0033C05000000015E22F5215BF4
:1015D00021000000003421000000000000C8232288
:1015E000222D215021000000007B21BA23000000A1
:1015F0000000000000000000002922000000000B95
:1016000000D0003F0509160200007800000000012C
:10161000000C0E001B240000000000000000000071
:10162000000000000000D32356245024532400005F
:10163000462400000000000003244224182526252B
:10164000000000000000000000000000000000009A
:10165000030104260000000000000000000000005C
:10166000000000000000000000000000000000007A
:101670000126000000000000000000000000000043
:1016800096257B250000060018005E0590160401D3
:101690003F000007007F3F26C126A22683260000C8
:1016A000000000000000000000000000000000003A
:1016B0000000000034260000000000002926000081
:1016C000000000000000000000000C009000640515
:1016D000D416050100043C3F4346303030303030F2
:1016E00007270000000000000000000000000000CC
:1016F000000000000000000000000000F7260000CD
:1017000000000000000000000000000000000000D9
:10171000000000000100400270051E1707010133A0
:101720002700000000000000000000000000000092
:101730000000007E277B276B2700001F2700001B6F
:101740002700001727A32700000000000081270EB4
:101750002700000400100072055D170601007800E4
:101760000041280000000000000000000000000010
:101770000000000000000000000000000000001059
:101780002800000000000000000000000000000031
:1017900000000000000300C0007B059F1709010046
:1017A000030092288B29802900000000000000001F
:1017B0000000000075295B28542862280000000002
:1017C00069286B29000000000000000000000000F4
:1017D0006C28000000000A0000017F05F0171200CD
:1017E0001F3C5770869BAEBFCEDBE6EFF6FBFDFFDE
:1017F000007800000008040A0000CC297B2A612A36
:10180000542A00000000000000000000000000005A
:101810000000000000000000962900000000000009
:1018200000000000000000000000000000000400B4
:10183000B0008A0538180B0100000003FE2A4D2B6A
:10184000D92A000000000000000000000000F82C71
:10185000DD2BD22A212C00000000E12AEA2C000016
:1018600000000000000000000000ED2A0000000061
:101870000A004000900586180C01000102030405CF
:1018800006080A0C0E1000007800000924282A38E7
:10189000492D0000000000000000000000000000D2
:1018A0000000000000000000000000000000032D08
:1018B0000000000000000000000000000000000028
:1018C0000000000010002002BB05CE180801010036
:1018D0000000000000000000000000000000722D69
:1018E00000000000000000000000000000000000F8
:1018F000000000000000000000000000D72D0000E4
:101900000000000000006A2D00000000592D0000BA
:101910000000010044020B061C190A01007B30364E
:101920002F2E2F0000000000000000000000002704
:1019300030942F272F672F00000000562F193000FA
:101940000000000000000000000000323000000035
:10195000001F0000020C065B191501000078000052
:101960001000073F3F0002000A003F0004004A0049
:101970003F00020047003F000400BF32C531A531DF
:101980007D315931783235310D31513202314C329D
:1019900047324232D1302F320000000000000000F8
:1019A000FB300000E630EC300000000000000100D9
:1019B00000003D06B8190E0100E4322933DC33D3B0
:1019C00033000000000000000000000000000000E4
:1019D00000000000000000D93200000000000000FC
:1019E0000000000000000000000000000008008867
:1019F000003F06F7190F01007F0C200000070AF5D1
:101A0000332F3517350F35000000000000000000AF
:101A100000000000000000000000000000E53300AE
:101A200000000000000000000000000000000000B6
:101A30000000000600100147063D1A1301000001D6
:101A400000F4005A35000000000000000000000013
:101A5000000000000000000000000000000000572F
:101A60003500000000000000000000000000000041
:101A7000000000000000000200F4035106811A1764
:101A800000000200003237883677350000000083FE
:101A9000350000AA350000F437E236DB363E36006A
:101AA0000000001736E6370000D335ED356536FF08
:101AB000370000E93600000000870020015306C30C
:101AC0001A14010000007800000C000830FF30FFFD
:101AD0003CFF3CFF007138000000000000000000E7
:101AE00000000000000000000000000000000000F6
:101AF0000000003938000000000000000000000075
:101B000000000000000000000004008000E1061357
:101B10001B110100300001E338000000000000004C
:101B2000000000000000000000AC388A380000927D
:101B3000380000A9380000000000000000953800BF
:101B400000FE38000000000000000002000A00E56E
:101B500006551B00010408D839593900000000005F
:101B6000000000000000000000783AAB3952398CC8
:101B7000390000000070396A3A00000000000000DF
:101B80000000000000B2390000000008003000EA48
:101B900006A11B16010500000000010102FBF9FF70
:101BA0000000007808003C000500A90EF90F5E1047
:101BB000461136159A158816A61F752011241FBECA
:101BC000CFEFD8E0DEBFCDBF11E0A0E0B1E0E4E4AC
:101BD000F7E702C005900D92A433B107D9F718E0DA
:101BE000A4E3B1E001C01D92AF36B107E1F71BE1FC
:101BF000CCEBDBE104C02297FE010E949C3BCA3A79
:101C0000D107C9F70E94B9140C94833A0C940000D0
:101C1000EF92FF920F931F93CF93DF938C01EB0111
:101C200060E070E0AE010E949E3A009719F0EC016E
:101C3000C01BD10B7E01CE01CDB7DEB7E6E00C9420
:101C40008B3BCF92DF92FF920F931F93DF93CF9343
:101C50000F92CDB7DEB76C01F62E062F10E0B8015B
:101C600049830E94080E49818F15D1F0D601A00F3B
:101C7000B11F1297E82FF0E03197EC0DFD1D90E0B9
:101C80000DC0981728F4208111962C93119703C04A
:101C900011964C9311979F5F119731979F1588F379
:101CA0000F90CF91DF911F910F91FF90DF90CF9018
:101CB000089540E20E94210E08951F93CF93DF9371
:101CC000EC01162F70E00E94080E06C0FE01E80F1E
:101CD000F11D90E290838F5F8117C0F3DF91CF9168
:101CE0001F9108958FB7F8942091340130913501F8
:101CF00040913601509137018FBFB901CA01089553
:101D00001F920F920FB60F9211242F933F934F9370
:101D10005F936F937F938F939F93AF93BF93EF9353
:101D2000FF93E0913901F0913A01309709F009955C
:101D3000FF91EF91BF91AF919F918F917F916F91A3
:101D40005F914F913F912F910F900FBE0F901F9079
:101D500018950895E0913B01F0913C01309709F00E
:101D600009950895E0915F01F0916001309711F0BD
:101D70000995089580E00895609171017091720154
:101D800040916F01509170018091730190917401A5
:101D90000E94CA3A08956091710170917201409158
:101DA0006F015091700180917301909174010E94B4
:101DB000B23A08950E94CB0E80E00E94B20E0E94BB
:101DC000AA0E08952091710130917201E091730182
:101DD000F0917401E80FF91F820F931F60810E9438
:101DE000D43A0895609175017091760140916F0128
:101DF0005091700180917301909174010E94863A14
:101E00000E94BC0E0895E82FF0E0EE0FFF1FEE5F7A
:101E1000FE4F608171818BE391E04EE350E00E94C0
:101E2000863A08950E94C510089586E1089580912C
:101E30007A01909179018150891B8F770895909153
:101E40007901E5EFF6E0E90FF11D80839F5F9F7751
:101E50009093790108951F93182F0E94170F8823DC
:101E6000E1F3812F0E941F0F1F9108958091790146
:101E700090917A01891B8F77089590917A01E5EF0F
:101E8000F6E0E90FF11D80819F5F9F7790937A01C3
:101E900008950E94360F8823E1F30E943D0F0895B4
:101EA0002B9A08959091C00081E095FF80E00895FD
:101EB0001F93182F0E94520F8823E1F31093C6003E
:101EC0001F9108951F93182F07C082E28093750712
:101ED0000E94490F0E94580F0E94170F8117A8F304
:101EE0001F9108950F931F93CF93DF93182FEB014A
:101EF000042F842F0E94620F812F0E942B0F00233A
:101F000041F088810E942B0F013019F089810E94D5
:101F10002B0FDF91CF911F910F910895A2E0B0E0B8
:101F2000E4E9FFE00C94723B182F83E04A83698355
:101F30000E94620F812F0E942B0F6981862F0E94C1
:101F40002B0F4A81842F0E942B0F2296E3E00C94E2
:101F50008E3B1F93CF93DF93182F8091780325C07A
:101F6000C82FD0E0FE01EE0FFF1FEE0FFF1FEC0F9A
:101F7000FD1FEA54FE4F82818823C9F460816E3FC1
:101F800051F04181442319F4812F806802C0812FD0
:101F900080690E948E0FFE01EE0FFF1FEE0FFF1FE4
:101FA000EC0FFD1FEA54FE4F83818823C9F60E947F
:101FB0006C10DF91CF911F9108951F93182F03C0CC
:101FC000812F0E94A90F8091B5018823C9F71F9125
:101FD0000895A1E0B0E0EFEEFFE00C94733B89833D
:101FE0000E94500F89810E94580F2196E2E00C94C4
:101FF0008F3B0895FC01EE0FFF1FEB59F84F8591C1
:10200000949170E0660F771F860F971FFC01259152
:102010003491C9010895A0E0B0E0E1E1F0E10C9451
:10202000693BC62E042F122FBC0180E090E02AE00D
:1020300030E040E050E00E94E23A9B01AC012C0D00
:10204000311D411D511D64E975E387E790E00E9451
:10205000413B69017A010894C108D108E108F108FF
:10206000212F30E040E050E0C701B6010E94E23A83
:102070004B015C01C0E8D1E010E0802F90E00296B7
:10208000612F0E94FA0F9C01B901882777FD809586
:10209000982FA50194010E94E23ABC01992777FD8F
:1020A0009095892F6C0D7D1D699379931F5F103179
:1020B00021F7CDB7DEB7ECE00C94853B089586EBB5
:1020C00091E06FEF70E042EC51E00E94AB3A109269
:1020D00078031092B5010895809178039091B5012D
:1020E000282F30E0F901EE0FFF1FEE0FFF1FE20F68
:1020F000F31FEA54FE4F2281222361F4292F21503D
:10210000882319F41092780307C08FEF80838381AE
:10211000922FE6CF809378039093B5010EC090E0A4
:10212000FC01EE0FFF1FEE0FFF1FE80FF91FEA542F
:10213000FE4F8281815082838381882381F70895B5
:102140002091780390E01DC030E0F901EE0FFF1FF1
:10215000EE0FFF1FE20FF31FEA54FE4F40814817B6
:1021600031F44181461719F44EEF40839F5FF90126
:10217000EE0FFF1FEE0FFF1FE20FF31FEA54FE4F9B
:102180002381222309F7892F0895ABEBB1E0E0E02A
:10219000F0E05E2F5F5F31969C919F3F29F015968E
:1021A000E935F105B1F708959091B5019F5F9093DE
:1021B000B501DF01AA0FBB1FAA0FBB1FAE0FBF1FC8
:1021C000AA54BE4F8C9311966C93119712964C9310
:1021D000129714962C93149760917803662381F0DC
:1021E000862F90E0DC01AA0FBB1FAA0FBB1FA80F10
:1021F000B91FAA54BE4F12968C911297481778F4C3
:10220000DF01AA0FBB1FAA0FBB1FAE0FBF1FAA542F
:10221000BE4F13966C931397509378030895862FAF
:1022200090E0DC01AA0FBB1FAA0FBB1FA80FB91FAC
:10223000AA54BE4F13966C911397662381F0262FF4
:1022400030E0D901AA0FBB1FAA0FBB1FA20FB31FFB
:10225000AA54BE4F12962C911297421700F7DF0135
:10226000AA0FBB1FAA0FBB1FAE0FBF1FAA54BE4FA2
:1022700013966C931397FC01EE0FFF1FEE0FFF1FD9
:10228000E80FF91FEA54FE4F538308950895809193
:102290003801982F9A59909338019D37D8F087517B
:1022A000809338018091340190913501019690938B
:1022B000350180933401809134019091350100976C
:1022C00049F480913601909137010196909337013E
:1022D00080933601089584B714BEE0E6F0E0808173
:1022E0008861808310820895E0913D01F0913E0164
:1022F000309709F009950895E0913F01F091400170
:10230000309709F009950895E0914101F09142015B
:10231000309709F009950895E0914301F091440147
:10232000309709F009950895E0914501F091460133
:10233000309709F009950895E0914701F09148011F
:10234000309709F009950895E0914901F0914A010B
:10235000309709F0099508951F93182FE0914B01CC
:10236000F0914C01309709F0099520915701309177
:1023700058012115310519F4812F0E94E90F1F9191
:102380000895E0914D01F0914E01309709F00995C3
:102390000895E0914F01F0915001309709F00995AF
:1023A0000895E0915101F0915201309709F009959B
:1023B0000895E0915301F0915401309709F0099587
:1023C0000895E0915501F0915601309711F009956B
:1023D000089581E00895E0915701F09158013097F8
:1023E00009F009950895E0915901F0915A0130974B
:1023F00009F009950895E0915B01F0915C01309737
:1024000009F009950895E0915D01F0915E01309722
:1024100009F009950895E0916501F0916601309702
:1024200011F00995089580E00895E0916901F09117
:102430006A01309711F009950895E0917301F091C8
:102440007401E80FF11D60830895E0916B01F09134
:102450006C01309711F009950895E0917301F091A6
:102460007401E80FF11D808108952091A001309141
:10247000A1012F5F3F4F40E050E080917C0190919F
:102480007D01A0917E01B0917F01820F931FA41F57
:10249000B51F80937C0190937D01A0937E01B09342
:1024A0007F018091A2018F5F8093A2018630C1F4E9
:1024B0001092A2018091A3018F5F8093A3018031CC
:1024C00011F41092A301E091A301F0E0EE0FFF1FC1
:1024D000E058FE4F808191819093A1018093A001EB
:1024E0008091A0019091A1010895362F242F60E0E2
:1024F000432F0E940B10089588E790E060E040E0D1
:102500000E9475121092A2011092A30110927B01F9
:10251000089580EF0E94AC1180EF0E94B0170895DB
:102520001F93182F0E94AC11812F0E94B0171F918A
:10253000089587EF0E94AC1187EF0E94B0170895AD
:1025400090938900809388009695879590938B004F
:1025500080938A0008951F920F920FB60F92112454
:102560002F933F934F935F936F937F938F939F939B
:10257000AF93BF93EF93FF930E9435120E94A01276
:1025800080917B01882391F080917801882319F054
:102590000E94FB1105C080917F038F5F80937F03B2
:1025A0008091A201882311F40E940312FF91EF9100
:1025B000BF91AF919F918F917F916F915F914F915B
:1025C0003F912F910F900FBE0F901F901895E1E84B
:1025D000F0E09081987F982B90830895E1EBF0E0F4
:1025E0009081987F982B90830895E0EBF0E09081A4
:1025F0009C7F982B90830895A1E0B0E0E2E0F3E1A6
:102600000C946F3B7C01062F007F162F1F70003F3C
:1026100009F4A0C0812F69830E94E1116981882398
:1026200009F098C097012F5F3F4F862FB901F7013E
:10263000448120E00E94F31191C0673F51F097015F
:102640002F5F3F4F862FB901F701448121E00E949F
:10265000F311003BA1F1013B40F40039C9F0003A0D
:1026600039F1003809F07AC00EC0003DD1F1013DCA
:1026700020F4003C09F072C02EC0003EC1F1003FC2
:1026800009F06CC043C0812FF701618142810DC008
:10269000F7014281442329F0812F61810E94741146
:1026A0005DC0812FF701618140E00E947C1156C01E
:1026B000812FF701618142810E9484114FC0F7018F
:1026C0006181862F8857883008F448C0812F428165
:1026D0000E94941143C0812FF70161810E949C11D7
:1026E0003DC0812FF70161810E948C1137C0F70135
:1026F000628170E07695762F662777956795818160
:10270000680F711D812F0E94A41128C01830B1F0EC
:10271000193028F4112351F0173001F50CC01B308B
:1027200099F01C30A1F01A30C9F40BC0F701818177
:102730000E94901213C00E94991210C00E94C111F1
:102740000DC00E94C9110AC00E94D11107C00E9489
:10275000D91104C0603F09F070CF7BCF2196E6E02D
:102760000C948B3BA1E0B0E0E8EBF3E10C94713BFF
:102770008C01862F69830E94EB116981683F20F0EC
:10278000C8010E94FC124DC067FF33C0F8011482DB
:1027900081E08583862F807F803AA1F0813A28F4FA
:1027A000803881F08039B1F40DC0803E59F0803F0F
:1027B00019F0803B79F406C0862F8F70982F9150C6
:1027C000923020F482E0F801858304C0843010F058
:1027D000F8011582F8018081803F21F469830E940D
:1027E00099126981F8016083603F59F40E9489124F
:1027F00008C0F8018481E80FF11D61838F5FF80143
:102800008483F80194818581981758F0C80160810C
:102810000E94FC12F80114828081813F10F0158221
:1028200010822196E4E00C948D3BEFE6F0E080818D
:10283000826080830895E0E7F0E08081816080839A
:1028400008952D9A08952B9808952D98089523980A
:102850000895239A0895882319F40E94271408954F
:102860008150823010F40E9429140895259808950B
:10287000259A0895882319F40E94361408958150EA
:10288000823010F40E94381408959093C50080930C
:10289000C4000895E0ECF0E080818D7F808308958E
:1028A000E1ECF0E08081886080830895E1ECF0E065
:1028B00080818061808308950E944A1487E290E0BD
:1028C0000E9445140E9450140E94561408951F93AC
:1028D00078941092C10081E00E942B1481E00E9444
:1028E0003A140E9469160E945F100E94150F8150D1
:1028F0000E94030F0E94CB0E80E00E94030F0E94F3
:10290000DA0E80E00E942512182F0E94150F18176A
:1029100028F080E060E00E94151210E0812F0E94F4
:10292000030F0E94851F0E947C1281E00E94E71223
:10293000109280008BE0809381008EE699E10E94E6
:10294000A0120E94151482E00E94EE1281E00E9403
:10295000F5120E941B1480E00E94030F0E940B12CC
:10296000812F0E94030F0E94DA0E0E945C141F91B7
:1029700008950E946B110E9467140E94D81BFDCF1E
:102980008091C000881F8827881F089578941F921F
:102990000F920FB60F9211242F933F934F935F9393
:1029A0006F937F938F939F93AF93BF93EF93FF9317
:1029B000DF93CF930F92CDB7DEB70E94C014882368
:1029C00081F06091C6006E3F21F48091510688230A
:1029D00041F469830E94211489E793E069810E9490
:1029E000B2130E94360F882391F00E94520F882361
:1029F00071F00E94500F0E943D0F8093C60007C0E7
:102A000080917F03815080937F030E94FB1180910E
:102A10007F038823A9F7809180038F5F8370809361
:102A2000800380FD0FC00E94AC1E8091800390E067
:102A300083709070009731F40E9447110E94231414
:102A40000E9425140F90CF91DF91FF91EF91BF91DC
:102A5000AF919F918F917F916F915F914F913F9136
:102A60002F910F900FBE0F901F9018951092790321
:102A700010927D0310927E030895982F80E002C08B
:102A80008F5F9C509C30E0F70895482F50E0E62F70
:102A9000FF27E7FDF09567FF08C0F095E195FF4F30
:102AA0004E175F0754F0860F08952FE730E02E1B76
:102AB0003F0B421753070CF4860F0895FC01EE0FED
:102AC000FF1FEB59F84F8591949170E0660F771FC7
:102AD000860F971FFC0125913491C9010895A1E04B
:102AE000B0E0E5E7F5E10C94713B162F6C3008F08F
:102AF0001C50811B87FD845F49830E943D15082F70
:102B0000692F498150E0CA0109960E945E152CE0A8
:102B1000029F90011124820F810F87FD8C50219616
:102B2000E4E00C948D3B6FEF70E040E450E00E94D5
:102B3000AB3A089581E893E00E949315089540917F
:102B4000F50390E00EC0242F30E0F901EE0FFF1FD7
:102B5000E20FF31FEE53FC4F5081581729F0942FCA
:102B60004281442381F708955281992359F0892F96
:102B700090E0FC01EE0FFF1FE80FF91FEE53FC4F32
:102B8000528302C05093F5036091C103E6EFF3E076
:102B900080E015C09191941789F4782F06C0FA014E
:102BA000EA50FC4F818180837F5F472F50E0862F62
:102BB00090E001974817590794F303C08F5F861779
:102BC00048F3F901EE0FFF1FE20FF31FEE53FC4F26
:102BD00012828FEF8083118261506093C103089548
:102BE000EF92FF920F931F93082FE62E0E949F15DE
:102BF0008091C1038031C9F4E7ECF3E020E030E0DC
:102C00002F5F3F4F8081882349F4F901EE0FFF1FAA
:102C1000E20FF31FEE53FC4FF08004C033962031D7
:102C2000310571F78F2D0E949F15E5ECF3E081E0EF
:102C300090819F3F09F4182F8F5F33968131C1F740
:102C4000812F90E0FC01EE0FFF1FE80FF91FEE53FC
:102C5000FC4F8091F50382830083E1821093F5039A
:102C60006091C103A6EFB3E020E030E020C0C901CD
:102C70004D912F5F3F4F50E0FA01EE0FFF1FE40F21
:102C8000F51FEE53FC4F4081041788F4262F09C02E
:102C9000E22FF0E0EA50FC4FDF0111973C913083C6
:102CA00021507217A8F38A509C4FFC0109C0722F63
:102CB0002617E8F2112329F0E62FF0E0EA50FC4F46
:102CC00010836F5F6093C1031F910F91FF90EF908E
:102CD0000895CF93DF931092C103E5ECF3E080E316
:102CE000DF011D928A95E9F780E1A7EFB3E0ED01DE
:102CF00019928A95E9F71092F50333978FEF808345
:102D0000339683E0E53FF807C9F7DF91CF91089547
:102D1000089583FF02C098E201C098E08770892B74
:102D200028E130E00FB6F894A895209360000FBE1C
:102D300080936000089510922C0410922B0482E07E
:102D400080932F04809131048230B1F0833018F4E5
:102D50008130B9F405C0813141F0833791F40CC062
:102D60008091320490E0029602C082E090E090935D
:102D70002E0480932D04089510922E0410922D0499
:102D8000089583E080932F040895FF920F931F937B
:102D9000CF93DF9384E492E00E94C23AF82EC82FCA
:102DA000D0E086E0CC0FDD1F8A95E1F7C058DD4FFB
:102DB00007E014E0C80160E873E040E250E00E94E0
:102DC000B23AC801BE0140E250E00E94CA3AC801CE
:102DD00060EA73E040E250E00E94B23AA096C80177
:102DE000BE0140E250E00E94CA3A80E06F2D0E948E
:102DF000592DCDB7DEB7E5E00C948C3BA0E0B0E0F8
:102E0000E4E0F7E10C946A3BC62FD0E08C012097F8
:102E100009F069C0C0E0D4E0C81BD90B64C0CE0182
:102E2000C132D10510F080E290E0B82EEE24FF24EC
:102E3000F701ED59FA4E84910E94580F0894E11C55
:102E4000F11C26E0E216F10499F781E00E94580F88
:102E50008B2D0E94580F0093070410930804CB2C6D
:102E6000DD2489E094E0B801A6010E94B23A9924D9
:102E7000AA2414C097E0E92E94E0F92EE40EF51E82
:102E8000D7012C91A20E822F82958F700E94580F2D
:102E9000F70180818F700E94580F9394492D50E064
:102EA0002B2D30E02F5F3F4F241735071CF72A2DBD
:102EB000822F82958F700E94580F8A2D8F700E94EA
:102EC000580F87EF0E94580FCC19DD090C0D1D1DFE
:102ED000209749F08FEB97E2A9E081509040A04005
:102EE000E1F700C00000209709F099CFCDB7DEB719
:102EF000EBE00C94863B609107047091080480918C
:102F000031048230A1F0833018F4813041F505C0DE
:102F1000813101F1833719F51AC04091320489E0FB
:102F200094E050E00E94CA3A0E94CB0E089580E0DF
:102F30000E94030F0E94DA0E80E0609132040E942A
:102F400015120E94BC0E84E60E948916FFCF0E94D3
:102F5000C5160895CB01609132040E94FE160895B3
:102F6000803F41F41092300410922C0410922B04F4
:102F700010922F0490912F04913029F1913030F06C
:102F80009230B1F1933009F07CC068C020912B04DD
:102F900030912C04F901ED59FA4EE491E81709F04B
:102FA00059C02F5F3F4F30932C0420932B042630C1
:102FB000310508F466C081E080932F0410922C0440
:102FC00010922B04089520912B0430912C04F901C8
:102FD000EF5CFB4F8083C901019690932C04809392
:102FE0002B048230910509F04CC00E949B16089575
:102FF00020912B0430912C04A90156954795FA0194
:10300000E95FFB4F20FF11C08F709081892B808377
:1030100060912D0470912E044617570758F4909133
:103020003004980F9093300405C0482F842F829568
:10303000807F80832F5F3F4F30932C0420932B049D
:1030400080912D0490912E040196880F991F2817C6
:103050003907B8F083E080932F040895873F71F417
:10306000E0912D04F0912E04E95FFB4F9091300424
:103070008081981719F40E947B17089585E080934A
:103080002F040895E0916101F0916201309711F0F1
:103090000995089580E00895E0916301F09164013D
:1030A000309711F00995089580E00895E091670147
:1030B000F0916801309709F009950895E0916D014C
:1030C000F0916E01309711F00995089581E008950F
:1030D0009091F304E92FF0E0EE0FFF1FEE0FFF1FBA
:1030E000ED5CFB4F80836183428323839F5F9093DA
:1030F000F3048091F4048F5F8093F404089589E5CC
:1031000067E540E021E00E9468188EE360E048E255
:1031100020EF0E9468188FE362E440E025E00E94FF
:10312000681880E460E040E02FE70E946818089586
:103130000F930E9468188091F4048150800F80934F
:10314000F4048091F6048F5F8093F6040F91089544
:103150000F931F93182F8091F704882339F08091E3
:10316000F50490E00E94E20E1092F7040091F5043D
:103170001093F5048091F404181718F0815080938F
:10318000F5048091F5040E945E18813021F08230B0
:1031900011F40093F5041F910F91089584EA91E0D2
:1031A00060E270E040E150E00E94AB3A08956F3F6A
:1031B00031F0693010F46F5C03C0685001C060E208
:1031C000FC0160830895FC01862F82958F708A3000
:1031D00010F4805D01C0895A80836F706A3010F4EA
:1031E000605D01C0695A61830895CF93DF9320E049
:1031F00002C02F5F6C506C30E0F7660FE62FF0E0F6
:10320000E759FA4EE491DC01ED936F5FE62FF0E0B1
:10321000E759FA4EE491EC01E983E22FF0E0EE5732
:10322000FA4EE4911196EC931197DF91CF910895A6
:103230000E94720E6093D0077093D1078093D207DB
:103240009093D30708950E94720E2091D007309179
:10325000D107621B730BCB010895FC01EE0FFF1F1A
:10326000E757FF4F25913491CB01B90150E00E94FF
:103270008F3A0895CF93DF93262FFA01662371F1D9
:10328000009721F480E38193215026C097FF06C068
:103290003DE231932150909581959F4F30E0C32FAF
:1032A000D0E0C550D84F6AE070E00E942E3B888382
:1032B0003F5FCB01009799F7932FEF0108C0315082
:1032C000A32FB0E0A550B84F8C91805D8993332334
:1032D000B1F7291BE90FF11D21111082DF91CF9168
:1032E0000895262F662331F1882329F4FA0180E31B
:1032F000819321501DC030E0E32FF0E0EC52F84FF5
:103300006AE00E94013B90833F5F8823A9F7932FD7
:10331000DA0108C03150E32FF0E0EC52F84F808121
:10332000805D8D933323B1F7291BFA01E90FF11D5D
:10333000211110820895CF93DF93262FFA0166237F
:1033400059F1882321F480E38193215023C087FF22
:1033500004C09DE291932150819530E009C0A32FD4
:10336000B0E0A654B84F6AE00E940D3B9C933F5FCB
:103370001816ACF3932FEF0108C03150A32FB0E023
:10338000A654B84F8C91805D89933323B1F7291BE4
:10339000E90FF11D21111082DF91CF9108959AB1AB
:1033A0009F70882311F49AB90895813011F4906FB9
:1033B0009AB9089588ED97E060E270E040E250E04D
:1033C0000E94AB3A08950E94DA1983E498E06FE313
:1033D00070E040E250E00E94AB3A1092BF071092BA
:1033E000C9071092CB078FEF8093C8078093CA0755
:1033F0001092FA0708952091FC04E22FF0E0EE0FFE
:10340000FF1FED5FF74F918380832F5F2F71209314
:10341000FC040895942F282F822F8295807F6F704F
:10342000862B0E94FB1908958091FE049091FD0463
:10343000891B8F7308959091FD04E9E7F7E0E90F88
:10344000F11D80819F5F9F739093FD04089580918B
:10345000FC049091FB04891B8F7108952091FB045B
:10346000E22FF0E0EE0FFF1FED5FF74F80819181BB
:103470002F5F2F712093FB040895A3E0B0E0E3E4F5
:10348000FAE10C94733B0E942E1A282F622F62954A
:103490006F70782F7F70892F90E02396E2E00C9474
:1034A0008F3B20E1482F429F900111242852384F32
:1034B000C9010895A2E0B0E0E0E6FAE10C94733BA4
:1034C00069837A830E94511ADC0169817A81262FEF
:1034D000372FF90180E19191992329F0882319F080
:1034E0009D938150F8CF2296E2E00C948F3B64EAE2
:1034F00071E00E945A1A089580E00E94771A089598
:10350000DF92EF92FF920F931F93E82EF62E142F67
:10351000D22E84EA91E060E270E040E150E00E9447
:10352000AB3A8E2D853061F483E68093A40188E662
:103530008093A50186EA91E06F2D0E94D71807C0FD
:103540008E2D90E064EA71E043E00E942D1984EA38
:1035500091E063E00E94590E8091A601803294F4BC
:103560008091A501803271F48F2D90E0019662E088
:1035700044EA51E00E943A1984EA91E062E040E3B3
:103580000E94210E123049F1133028F4112341F02A
:10359000113049F519C0133019F0143021F50DC060
:1035A0008D2D63E048EA51E00E947119DD2029F574
:1035B000133019F58BE290E01BC08D2D63E048EAD3
:1035C00051E00E949B1919C08D2D90E0019663E097
:1035D00048EA51E00E943A1910C088EA91E06D2D46
:1035E0000E94F5180AC0412F50E0CA018D0D911DAF
:1035F00068EA71E043E00E942D1988EA91E063E0F7
:103600000E94590E002331F08BE58093A7018DE5D0
:103610008093AB0181E064EA71E00E945A1A1F9125
:103620000F91FF90EF90DF9008959BB18295807F7E
:103630009F70892B8BB908958091FD049091FE04B1
:103640008150891B8F7308959091FE04E9E7F7E09C
:10365000E90FF11D808361839E5F9F739093FE0449
:1036600008951F93182F0E941C1B823010F480E0D5
:1036700009C0812F82958F70612F6F7060618061AA
:103680000E94241B1F9108951F93182F0E941C1B3A
:10369000823010F480E007C0612F6F70812F829517
:1036A0008F700E94241B1F9108958295880F880FA8
:1036B000807C6068862B0E94441B08951F930E94A3
:1036C0001C1B843008F472C0809176079091F90732
:1036D000891738F48091FA078F5F8093FA07109268
:1036E0007507809176078093F9074091BF07809115
:1036F000CA07481739F48091FA0781FF03C0109177
:103700002E0116C010917507112369F0442311F0A2
:103710004F3049F4E42FF0E0E852F84F80818032D6
:1037200011F4115005C0E42FF0E0E852F84F108179
:1037300050E0FA01ED5BF74F80811817F1F020910E
:10374000C80730E02F5F3F4F4217530721F48091A5
:10375000CB07882331F48091C9076091CB070E9481
:10376000551B812F0E94311B8091BF07E82FF0E08D
:10377000ED5BF74F10838093C8078091CB078F5F75
:103780008093CB079091BF079F5F9093BF078031D5
:1037900069F41092CB078091C9078F5F8093C907A6
:1037A000823021F41092C9071092BF071F9108952B
:1037B000A8E0B0E0EEEDFBE10C946F3B00E0CAC086
:1037C0000E9418190091F5049091F3048091F60479
:1037D000091730F0992321F0882311F0081BF8CF46
:1037E00010E00E943D1A6C837D838E83DE0111966A
:1037F000FE01349683E001900D928150E1F78981BA
:10380000FA80EB80813009F06AC08E2D0E94B20EE2
:10381000882309F09EC08091F704882309F440C0F2
:10382000000F111F000F111F0D5C1B4FF80181814C
:10383000FF24E7FCF0948430D9F48091F5040E94D1
:103840002512992787FD90958E0D9F1DF8016281A5
:10385000772767FD7095238186179707E4F0332754
:1038600027FD3095BC0128173907ACF4B90113C006
:103870008091F5040E942512E80EF11CF801628186
:1038800070E08381E616F70634F090E0B7018E15FC
:103890009F050CF4BC018091F5040E94151259C0DB
:1038A0000091F5048091F5048E0D8093F5048F3F0F
:1038B00019F41092F50407C09091F404891718F0D8
:1038C00091509093F5048091F5040E945E18813028
:1038D00009F43FC0823031F70093F5043AC08230DA
:1038E00071F5FE2DF13039F50E944218882389F5D3
:1038F000F801EE0FFF1FEE0FFF1FED5CFB4F818104
:103900008F3261F40091F504802F0E94251261E04E
:10391000811160E0802F0E94151207C08091F7048A
:103920008E258093F7048823A1F48091F50490E01C
:103930000E94E20E0EC080E00E94030F0AC0833096
:1039400041F48F2D0E944C18882319F48F2D0E946A
:10395000A81801E00E94271A882309F031CF0E949D
:1039600023198333910528F00E9418190E945618D4
:1039700002C0002351F10E940B12882331F580917F
:10398000F5042091F3049091F604E82F60E0E2172B
:1039900038F0222329F0992319F0E91B6F5FF7CF44
:1039A000F0E0EE0FFF1FEE0FFF1FED5CFB4F0081FD
:1039B000418148876F830E942512282F802F6F81B5
:1039C00048850091F7040E94801A0E945E1B289689
:1039D000E6E00C948B3B38980895389A0895882334
:1039E00019F40E94EB1C08958150823010F40E945B
:1039F000ED1C0895409A089580E00E94EF1C0E94FB
:103A0000FA1C8FEF80937707089539980895399AB3
:103A10000895882319F40E94051D0895815082306D
:103A200010F40E94071D0895419A089580E00E94B5
:103A3000091D0E94141D8FEF8093020808953A9883
:103A400008953A9A0895882319F40E941F1D089535
:103A50008150823010F40E94211D0895429A0895E9
:103A600080E00E94231D0E942E1D8FEF8093CC07C3
:103A700008953B9808953B9A0895882319F40E946D
:103A8000391D08958150823010F40E943B1D089525
:103A9000439A089580E00E943D1D0E94481D8FEFCB
:103AA0008093B907089524980895249A0895882347
:103AB00019F40E94531D08958150823010F40E9421
:103AC000551D08952C9A089580E00E94571D0E946C
:103AD000621D8FEF8093CD07089552980895529AF2
:103AE0000895882319F40E946D1D08958150823035
:103AF00010F40E946F1D089553980895539A0895E5
:103B0000882319F40E947C1D08958150823010F49E
:103B10000E947E1D08955A9808955B9808950E940A
:103B20008D1D0E948B1D089586B1817008951F938D
:103B300010917707110F0E94941D812B80937707B6
:103B40001F91089581E0319B80E008951F931091AB
:103B50000208110F0E94A21D812B809302081F9161
:103B6000089581E0329B80E008951F931091CC0767
:103B7000110F0E94B11D812B8093CC071F910895D6
:103B800081E0339B80E008951F931091B907110FD6
:103B90000E94C01D812B8093B9071F91089581E079
:103BA0001C9B80E008951F931091CD07110F0E9478
:103BB000CF1D812B8093CD071F91089522980895E2
:103BC000229A0895882319F40E94DE1D08958150D9
:103BD000823010F40E94E01D08952A9A089580E032
:103BE0000E94E21D0E94ED1D8FEF809378070895DB
:103BF00021980895219A0895882319F40E94F81DA8
:103C000008958150823010F40E94FA1D0895299A77
:103C1000089580E00E94FC1D0E94071E8FEF809394
:103C2000CF07089520980895209A0895882319F4BD
:103C30000E94121E08958150823010F40E94141EBA
:103C40000895289A089580E00E94161E0E94211E61
:103C50008FEF8093CE0708950E94EF1D0E94091EEA
:103C60000E94231E089581E01A9B80E008951F930F
:103C700010917807110F0E94331E812B80937807D3
:103C80001F91089581E0199B80E008951F93109182
:103C9000CF07110F0E94421E812B8093CF071F91E7
:103CA000089583B1817008951F931091CE07110F6D
:103CB0000E94511E812B8093CE071F9108951F9360
:103CC0000E94371E182F0E94461E103819F4982F94
:103CD000907F29F0803829F4107F19F404C011E096
:103CE00003C010E001C01FEF0E94541E812F1F91DE
:103CF00008955A9A08955B9A0895A1E0B0E0E3E828
:103D0000FEE10C94733B84FF04C089830E94791EFA
:103D100089818F700E94151B0E947B1E2196E2E014
:103D20000C948F3B809176078F5F8093760780910C
:103D30006308882329F00E948F1D1092630808955C
:103D40000E94141A882339F081E0809363080E944E
:103D50001B1A0E947D1E0895CF93DF930E945F1E61
:103D6000482F882321F081E060E00E940A1A0E9417
:103D7000511E882399F4C091F904D091FA04219638
:103D8000D093FA04C093F9040E9467358C179D07FD
:103D900028F482E060E04FEF0E940A1A8091CE077B
:103DA0008F3791F4C091F904D091FA040E946735DD
:103DB0008C179D0728F082E060E041E00E940A1A1B
:103DC0001092FA041092F9048091F8048230B1F054
:103DD000833028F4882341F0813031F50AC08330E4
:103DE00091F0843009F514C00E94971D80917707E7
:103DF00013C00E94A61D809102080EC00E94B51D2E
:103E00008091CC0709C00E94C41D8091B90704C0ED
:103E10000E94D31D8091CD07803831F483E06091FA
:103E2000F80440E00E940A1A8091F8048F5F8093A2
:103E3000F804853010F01092F8040E94921EDF9171
:103E4000CF9108950E947D1E87E893E10197F1F7D5
:103E500000C000000E948F1D87E99AE30197F1F7E7
:103E600000C0000008951F93182F82958F700E9444
:103E7000221F812F8F700E94221F1F91089581E0C1
:103E80000E94711D81E00E94801D81E00E94CF1977
:103E90000E948B1D0E948D1D8FE79AE1A6E0815044
:103EA0009040A040E1F700C0000083E00E94221F84
:103EB000AFE0B7E21197F1F700C0000083E00E9485
:103EC000221F8FE097E20197F1F700C0000083E026
:103ED0000E94221FAFE0B7E21197F1F700C0000087
:103EE00082E00E94221F88E20E94331F8CE00E9421
:103EF000331F86E00E94331F81E00E94331F82E05F
:103F00000E94331F1092630808950E942C1E0E9485
:103F1000FC1C0E94161D0E94301D0E944A1D0E941A
:103F2000641D0E943F1F0E94E3191092F804109232
:103F3000F3041092F4041092F6041092F504109217
:103F4000F7041092FA041092F90408954091C00702
:103F50003091C1072091C2079091C3078091C40797
:103F6000F091C507E091C607A091C707642F6F5F66
:103F700051E0641708F050E0530F41E0531708F088
:103F800040E0420F31E0421708F030E0390F21E005
:103F9000391708F020E0280F91E0281708F090E08A
:103FA0009F0F81E09F1708F080E08E0F71E08E1761
:103FB00008F070E07A0F6093C0075093C1074093F8
:103FC000C2073093C3072093C4079093C50780931B
:103FD000C6077093C707089588E2EFEFF4E0DF01AA
:103FE0001D928A95E9F7E8E2F5E083E1819381503B
:103FF000E8F70895ECE3F5E093E12291281741F00A
:10400000A92FBB27A7FDB095A85DBA4F2C9391505F
:1040100025E0E832F20789F78093280508951F9379
:1040200020912705EFEFF4E090E01FEF06C030810C
:10403000381709F4192F9F5F32969217C1F71F3F67
:1040400051F0E12FF0E0EE0FFF1FE150FB4F118226
:10405000812F0E94FA1F812F1F9108951F93209195
:1040600027052223F1F1EFEFF4E010E005C0908185
:104070003296981731F01F5F1217C8F390E01FEFC8
:1040800003C01F3F09F590E0E92FF0E0E85DFA4F2B
:104090003081321750F4E32FF0E0EE0FFF1FE150B4
:1040A000FB4F4181442309F4132F9F5F943161F743
:1040B0001F3F51F4E8E2F5E09191921708F4192FAF
:1040C00095E0EC33F907C1F7E12FF0E0EE0FFF1FA9
:1040D000E150FB4F808381E08183812F0E94FA1F92
:1040E00001C01FEF812F1F910895089580913C0515
:1040F00080933D05882319F481E080933D05089560
:104100001F9310913D05180F10933D05112311F4D5
:1041100081E00CC00E94150F212F30E090E0039643
:10412000821793072CF40E94150F8D5F80933D0535
:1041300081E01F9108950E94E90F08950F931F9346
:10414000CF93DF9310913D050E94150F181789F446
:104150000DC0812F8068602F40E00E948E0F0F5F9E
:104160000038B9F71F5F103111F43AC010E000E0D9
:10417000F0CF80913D05C82FD0E00E94150F90E050
:104180000196C817D90731F480E090E060E00E9402
:10419000FE1621C080913D05C82FD0E00E94150F6A
:1041A00090E00296C817D90791F411E006C0812F5C
:1041B0000E94030F0E94F20E1F5F0E94150F181736
:1041C000B0F380E00E94030F10923C0504C0809180
:1041D0003D0580933C050E94BC0E84E60E94891632
:1041E00081E0DF91CF911F910F9108951F93CF939D
:1041F000DF930E94CE1810913D050E94150F1817ED
:1042000060F080913D05C82FD0E068960E94150FA0
:104210009E01281B3109C90107C080913D050E94FC
:10422000030F8091770190E064EA71E040E10E9421
:104230002D1980E00E94030F84EA91E060E10E9462
:104240005D0E0E947C1A0E94CE1881E00E94771AAF
:1042500081E0DF91CF911F91089580913F058130DA
:1042600011F480933E050895A1E0B0E0EAE3F1E2A5
:104270000C94733B90914305891771F4603461F499
:1042800080915205882331F0442321F449830E9410
:1042900069164981409352052196E2E00C948F3BC8
:1042A00080913F05813031F410923E0580914305A5
:1042B0000E94DD0F0895909143058917D9F48091EC
:1042C00052058823B9F480914905882321F4862F6B
:1042D0000E949F1508952091F50330E0F901EE0F3B
:1042E000FF1FE20FF31FEE53FC4F8081681711F49C
:1042F00010925305089590914305292F2068821745
:1043000069F0292F2069821749F0906B891721F4F1
:10431000FB019081903411F00E94720F089520E00B
:104320000E94120F08952091000130910101C901EE
:1043300081709070909581959F4F8070947B369599
:104340002795822793279093010180930001089578
:104350000E94932180910101089510927C01109296
:104360007D0110927E0110927F0181E080937B019C
:104370001092A2011092A30180918001909181017D
:104380009093A1018093A001089580914F05813001
:1043900029F4109250051092510508958091C1039F
:1043A000815080935105809145058150809350053F
:1043B000089581E080933E0581E090E090934E0562
:1043C00080934D0580914A05815080934B058091E3
:1043D0004405813011F48FEF01C081E080934F05D7
:1043E000109253050E94C52108950F931F93162F15
:1043F000042F90914305891711F580913F0588237B
:1044000069F480914C05803638F00E94AD210E94FD
:10441000D9218AEF0E94E90F10924C05809149053D
:10442000882349F080915305882329F40E94691656
:1044300081E080935305812F602F0E94F0151F911A
:104440000F91089580913F05813011F40E94D92188
:1044500008950F931F93182F062FE82FF0E0E15CCB
:10446000FA4F6083843048F48091400590E0609179
:104470004105409142050E947512E0914705F0E028
:10448000E858FF4FE491E0934A05153061F48091BC
:104490004405813011F48FEF01C081E080934F0516
:1044A0000E94C52108C01A3031F4002321F40E9473
:1044B0006916109253051F910F9108950E947F185D
:1044C0008AE261E040E02FE00E94681885E766E735
:1044D00040E023E00E9468188AE760E041E024E0C1
:1044E0000E94681885E561E040E025E10E946818B7
:1044F0008DE761E840E020E10E9468188BE761E801
:1045000040E020E10E9468188CE76FE240E021E083
:104510000E9468188091400590E0609141054091AB
:1045200042050E94751288E0609147050E94292289
:104530000E94AD2180E680934C0510923E051092BA
:1045400052051092530508951F931091C103609175
:104550004405633059F50E94A821982F92959F70C9
:104560009093510590914505292F30E0692F619571
:104570008F70982F860F492F552747FD509542176A
:104580005307BCF790935005612F619540915105F9
:10459000542F460F252F332727FD3095812F90E08C
:1045A00028173907ACF7509351053CC050914F057F
:1045B00040915105450F40935105242F332727FD86
:1045C0003095812F90E0281739071CF01092510583
:1045D00006C047FF27C0812F81508093510540912D
:1045E0005005450F40935005242F332727FD309564
:1045F0008091450590E02817390714F447FF12C051
:10460000623071F4519550934F050E94C5211230CC
:1046100008F09BCF80914505823008F096CF02C00C
:104620000E94C5211F910895E62FF0E0EE0FFF1FB5
:10463000E80FF91F25913491C90108950F931F9335
:1046400080914B058F5F80934B058091C103882338
:1046500011F010924C0580914C058F5F80934C05B2
:10466000803680F080E680934C0580913F0588235A
:1046700049F410923E058CEF0E94E90F80914305AA
:104680000E94DD0F809143050E94A90F90914B0578
:1046900080914A05981708F46AC010924B0583E987
:1046A00092E0609146050E94142320914D053091BF
:1046B0004E05282339232115310511F08FEF01C054
:1046C00080E09091C103992309F43FC0882309F445
:1046D0003CC0E0915105F0E0EA50FC4F808190E051
:1046E000FC01EE0FFF1FE80FF91FEE53FC4F808116
:1046F0000181109150059CE0199F102D1124180F75
:1047000001C01C5017FDFDCF812F60E00E94A0105A
:10471000882339F0809143058068612F40E00E9432
:104720008E0F809143058069612F402F0E948E0F6C
:10473000E0914805F0E0E858FF4F44914150812F47
:1047400060E00E948F210E94A42280914D059091EB
:104750004E05880F991F90934E0580934D05009745
:1047600031F481E090E090934E0580934D051F91C8
:104770000F91089580913F05882349F480913E056B
:10478000882329F088EF0E94E90F0E941E230895D4
:1047900080913F05813031F480913E05882311F0EE
:1047A0000E941E2308958091540590915505A09173
:1047B0005605B09157050097A105B10541F4109237
:1047C0007C0110927D0110927E0110927F01209158
:1047D0007C0130917D0140917E0150917F012093B9
:1047E00058053093590540935A0550935B0501963F
:1047F000A11DB11D8093540590935505A0935605B6
:10480000B09357050895882379F090915C05980F2F
:1048100090935C05913818F010925C0505C09330B8
:1048200018F082E080935C0581E080935D050E9432
:10483000771A81E0089582E19AE760E040E00E9403
:10484000751210925C0581E080935D050E94771AD5
:104850000895109254051092550510925605109225
:104860005705109258051092590510925A0510924A
:104870005B0510927C0110927D0110927E011092D6
:104880007F0108950E94292481E008951F93182F25
:104890000E94E90F1F3F11F40E9429241F910895DF
:1048A0000E94292408950E94292408950E94292401
:1048B0000895EF92FF920F931F93CF93DF93042FEE
:1048C000E901442391F1611571058105910521F4F8
:1048D00080E38993015027C010E0E12EFF2424E6F5
:1048E00038E0E20EF31E2AE030E040E050E00E94A3
:1048F000413BF70160831F5FB901CA016115710572
:104900008105910551F7912FDE0108C01150E12F6B
:10491000F0E0EC59F74F8081805D8D931123B1F762
:10492000091BC90FD11D01111882CDB7DEB7E6E012
:104930000C948B3BEF92FF920F931F9380915C0539
:10494000813011F482E401C082E68093A401609179
:104950005405709155058091560590915705611544
:1049600071058105910521F06150704080409040B3
:10497000E0905805F090590500915A0510915B059B
:1049800008C0969587957795679516950795F7943E
:10499000E794673222E0720720E0820720E0920766
:1049A00080F7E114F1040105110539F024E935E33C
:1049B00047E750E00E94E23A08C060E070E0CB01B7
:1049C00021E0E22EF12C012D112DA80197010E946A
:1049D000413BCA01B90146E026EA31E00E94592470
:1049E00086EA91E066E00E94590E8091AA01803229
:1049F00019F480E38093AA018091A6018093A50118
:104A00008091A7018093A6018091A8018093A701BE
:104A10008091A9018093A8018091AA018093A901A6
:104A20008EE28093AA011F910F91FF90EF9008955D
:104A300080935C05833018F082E080935C050E94CF
:104A40009A2481E00E94771A81E0089580915C05A4
:104A50008230B8F590915D05992311F4813059F4B5
:104A60000E949A2481E00E94771A80915C05882335
:104A700011F40E94292480915C058823F1F480912F
:104A80007C0190917D01A0917E01B0917F018133E5
:104A900025E7920720E0A20720E0B20770F021E0AE
:104AA0008091540590915505A0915605B0915705F8
:104AB00081339105A105B10508F420E020935D053F
:104AC00018C084E78093A401609154057091550546
:104AD000809156059091570547E025EA31E00E9404
:104AE000592485EA91E067E00E94590E81E00E9416
:104AF000771A81E00895882399F420915E0530E0CB
:104B00008091620590E060916305281739076CF089
:104B100040E0862F942F281739073CF4C9010895E7
:104B2000E82FF0E0E25AFA4F8081089550915E0537
:104B3000E82FF0E0E25AFA4F608380916005882305
:104B4000A9F48091620587FF03C08FE78093620517
:104B50008091630587FF03C08FE780936305809191
:104B6000610587FF03C08FE78093610520915E0593
:104B700030E08091620590E0709163052817390755
:104B80003CF040E0872F942F281739070CF4C90117
:104B9000482F80935E05851799F19091600560918B
:104BA000610580915F05992331F46F774F77806BB2
:104BB0000E948E0F0895462F441F4427441F806B88
:104BC00063E60E948E0F80915F05409161054F77EB
:104BD000806B62E60E948E0F80915F0540915E05BA
:104BE000441F4427441F806B66E00E948E0F809113
:104BF0005F0540915E054F77806B66E20E948E0FE5
:104C000008950E94720F089588E460E040E02FE765
:104C10000E9468188AE261E040E02FE00E94681874
:104C20008AE46BE440E021E00E94681889E460E0D7
:104C300040E02FEF0E9468188DE460E040E02FEF25
:104C40000E9468188EE460E040E02FEF0E94681830
:104C500008958091F704882319F41092650502C025
:104C60000E94BC0E80E00895982F907F903831F01C
:104C7000903921F0903A11F00E94720F08958AE263
:104C800063E040E020E10E9468180895A1E0B0E0F0
:104C9000ECE4F6E20C946F3B082FF62E142F809173
:104CA0006505882311F0EE2426C0862F802B642F03
:104CB000422F0E948E0F23C0E12FF0E08091660505
:104CC000E81BF109AE2DB0E0AA59BA4F8C91E80F5C
:104CD000F11D01C03C96F7FDFDCF01C03C97E038C7
:104CE000F105E4F78F2D802B6E2F422F29830E9430
:104CF0008E0FE394298180916505E816E8F22196EC
:104D0000E6E00C948B3B982F362F242FA09164055E
:104D1000AA2339F0B0E0E82FF0E03196AE17BF07D4
:104D200021F48091F704882339F0892F806A632F5A
:104D3000422F0E948E0F089580EA692F432F0E9410
:104D400046260895982F362F242FA0916405AA2374
:104D500039F0B0E0E82FF0E03196AE17BF0721F44C
:104D60008091F704882339F0892F8068632F422FC0
:104D70000E948E0F089580E8692F432F0E944626D7
:104D80000895382F962F242FA0916405AA2339F077
:104D9000B0E0E82FF0E03196AE17BF07D9F480916C
:104DA000F7048823F1F080916505E82FF0E0EA59D7
:104DB000FA4F90838F5F809365058A3059F4E7E658
:104DC000F5E08181819385E0EF36F807D1F789E03E
:104DD00080936505832F8069692F422F0E948E0F73
:104DE000089580E9632F492F0E9446260895883F41
:104DF00059F4909171059F5F909371052091700512
:104E0000921720F0109271050E94E90F08958DE726
:104E100060E041E020E20E9468180895843009F4BF
:104E200081E0E82FF0E0EE58FA4F8081089510926B
:104E3000760580E0089588EF0E94E90F0895282FF5
:104E400030E0207F3070873F29F091E0803F19F0FB
:104E500090E001C091E0203F310511F4992311F059
:104E60000E94E90F08958DE36FE240E021E00E9487
:104E700068188EE360E048E220EF0E9468188FE334
:104E800062E440E025E00E94681880E460E040E0D1
:104E90002FE70E94681881E460E048E220EF0E945A
:104EA00068188091730590E06091740540917505D4
:104EB0000E947512109272051092760508958091E5
:104EC0007205882339F010927B018CEF0E94E90F64
:104ED0001092720508950E945F27089580917205CF
:104EE000882341F40E94AD218AEF0E94E90F81E0FE
:104EF0008093720508950E946E2708950E946E2780
:104F000008950F931F93182F062F882341F46130C3
:104F100019F40E946E2706C00E945F2703C08430E8
:104F200009F411E0E12FF0E0EE58FA4F0083809190
:104F3000730590E060917405409175050E947512AB
:104F40001F910F910895EF92FF920F931F938091FD
:104F5000F504843009F05EC080917C0190917D0160
:104F6000A0917E01B0917F0110927C0110927D0191
:104F700010927E0110927F01609176056623C9F13F
:104F800080382AE1920726E0A20720E0B20788F5E0
:104F9000E0907705F09078050091790510917A05F9
:104FA000E80EF91E0A1F1B1FE0927705F0927805A4
:104FB0000093790510937A0570E080E090E020E39B
:104FC0003AE14EE151E00E94E23AA80197010E94C5
:104FD000413B2832310534F0213F31052CF020EFE0
:104FE00030E002C028E230E081E0622F0E94812799
:104FF0000AC01092760510927705109278051092EB
:10500000790510927A05809176058F5F80937605F9
:1050100081E001C080E01F910F91FF90EF90089513
:105020001F93182F107F103F41F18F70E0917B0587
:105030008E1760F0A82FB0E090917C052E2F30E005
:10504000290F311D91E0A217B3070CF090E0282F33
:1050500030E0205F3F4FF0E02E173F0744F05091C3
:105060007C05E50FF11D51E02E173F070CF050E0D5
:10507000952B11F080917D05812B0E94720F1F915D
:10508000089586E661E040E02FE00E94681889E418
:1050900060E041E020E10E94681887E661E040E0BE
:1050A0002FE00E946818089580917F05813011F4E7
:1050B00080937E05089580917F05813011F480935F
:1050C0007E05089580917F05813011F410927E0550
:1050D00008950E94720F08950F931F93182F062FA3
:1050E000E82FF0E0E158FA4F6083843080F480913B
:1050F000800590E060918105409182050E947512C3
:10510000112329F4002319F48CEF0E94E90FE09198
:105110008605F0E0E052F84EE491E09389051F9196
:105120000F9108950E947F188AE261E040E02FE02D
:105130000E94681882E161E840E02CE00E94681853
:1051400082E960E040E020E20E9468188DE661E0BC
:1051500040E02FE00E94681883E964E048EE28E10F
:105160000E94681884E964E041EC2FE30E9468180B
:105170008091800590E060918105409182050E94B8
:10518000751285E0609184050E946C280E94AD2113
:1051900010927E050895A1E0B0E0E1EDF8E20C94F4
:1051A000703B442309F454C090918505941B97FDEE
:1051B00090E0E0918405F0E0E858FF4F049110E0A2
:1051C00030918805532F550F20E0A22FB0E0E92F32
:1051D000FF27E7FDF095AE17BF077CF4332369F096
:1051E000FF275102F00150030024F009E10DF01DEA
:1051F00011240E0F1F1F2F5FE8CF91E0662309F4E3
:1052000090E020918905629FF12C1124F91608F491
:10521000F92E6091870549830E9445154981101632
:1052200011063CF40F3F110531F02CF00FEF10E0A8
:1052300002C001E010E0242F21506F2D402F0E946A
:10524000120F8091B501823518F082E280937507C4
:105250002196E5E00C948C3BCF93DF93809178030B
:1052600033C0C82FD0E0FE01EE0FFF1FEE0FFF1F6F
:10527000EC0FFD1FEA54FE4F8281882339F56081CF
:105280006E3FC1F0418180918305442311F4806811
:1052900001C080690E948E0FFE01EE0FFF1FEE0F0E
:1052A000FF1FEC0FFD1FEA54FE4F80816181448196
:1052B0000E94CB28FE01EE0FFF1FEE0FFF1FEC0F29
:1052C000FD1FEA54FE4F8381882359F60E946C101B
:1052D000DF91CF91089580917F05882329F488EF8D
:1052E0000E94E90F0E942C29089580917F0581304A
:1052F00031F480917E05882311F00E942C290895B5
:1053000090918305891731F4862F60E040918505DF
:105310000E94CB28089520918305821731F4862FAF
:10532000642F409185050E94CB280895FF920F932A
:105330001F93CF93DF93EB01F42E182F107F103FB4
:1053400031F0282F2F7090918A05291729F0BE017E
:105350004F2D0E94720F16C01038A1F0103991F035
:10536000103A81F000E00AC080918C05800F8F70A8
:10537000812BBE014F2D0E94720F0F5F80918D0512
:10538000081790F3CDB7DEB7E5E00C948C3B109294
:1053900027050E94EC1F08950E94C72986E661E058
:1053A00040E02FE00E94681884E560E740E024E0D8
:1053B0000E94681887E661E040E02FE00E946818CC
:1053C00089E460E041E020E10E94681810928E05B7
:1053D0000895CF93DF93DC01EC01E0E028812617EC
:1053E00069F0EF5F2296E032C9F7E0E02C912F3FA1
:1053F00029F0EF5F1296E032C9F7E0E0F0E0EE0F3F
:10540000FF1FE80FF91F60834183DF91CF9108955B
:10541000FC0120E030E04081461729F4220F331FC1
:10542000280F391F08C02F5F3F4F329620323105B9
:1054300091F720E030E0C9010895EF92FF920F93B9
:105440001F93CF93DF93182F042FF22E81E893E060
:10545000642F0E94082AEC01009709F199819F3F6F
:1054600089F4EE240AC080918C058E0D8F70812BFB
:10547000602F4F2D0E948E0FE39480918D05E816CA
:1054800090F309C080918C05890F8F70812B602F5C
:105490004F2D0E948E0F103811F48FEF8883CDB7F7
:1054A000DEB7E6E00C948B3B982F362F242F8091AB
:1054B0008A05981729F480EA692F432F0E941D2A34
:1054C0000895A1E0B0E0E7E6FAE20C94713B082F02
:1054D000162F80918A05081751F4862F49830E9460
:1054E0000F2080E8602F412F29810E941D2A2196DC
:1054F000E4E00C948D3BFF920F931F93F82E162F30
:10550000042F80918A05F81609F048C080918B0518
:10551000823031F1833028F4882341F08130C1F5A5
:1055200016C0833029F1843099F526C080918E050C
:105530008F5F80938E0590918D05891710F01092E2
:105540008E0581E893E0612F40918E051FC0809108
:105550008D0580932705862F0E942E20482F13C08B
:105560000E94A82160918D050E94013B492F0BC02C
:1055700081E893E04FEF0AC0242F220F40918D0560
:10558000249F412D112481E893E0612F0E94E92995
:1055900080E96F2D412F202F0E941D2A1F910F910E
:1055A000FF90089580919105813011F480938F05CB
:1055B000089590919505891719F4862F0E949F15DB
:1055C000089590919505292F2068821729F09069F8
:1055D000891711F00E94720F0895E82FF0E0E0574C
:1055E000FA4F6083853048F48091920590E0609195
:1055F0009305409194050E94751208951F9384E5C8
:1056000065E540E021E00E9468180E947F188AE268
:1056100061E040E02FE00E9468181AE5812F62E007
:1056200044E12CE60E9468181F5F1E35B9F780918F
:10563000920590E060919305409194050E94751247
:105640000E94AD211092B4051092B5051092B605D6
:105650001092B7051092A0058BE08093A4051092DC
:10566000A1058093A5051092A2058093A60510922E
:10567000A3058093A70580E680939B0510928F0574
:105680001F9108951092B80581E090E09093BA05BB
:105690008093B90510929A050895A1E0B0E0E3E582
:1056A000FBE20C94713B162F90919505891709F038
:1056B00080C080919105882391F480919B0580366C
:1056C00060F049830E94AD210E94422B81E08093CB
:1056D0008F058AEF0E94E90F498110929B05812F67
:1056E000642F0E94F01580919005882319F010E036
:1056F0000FEF5BC010E01FC0E12FF0E0EA50FC4F5D
:10570000808190E0FC01EE0FFF1FE80FF91FEE53C0
:10571000FC4F80810E943D15873020F4843020F0BA
:10572000835003C083E001C080E0E82FF0E0EC5438
:10573000FA4F90831F5F8091C1031817E8F239C0B8
:10574000E12FF0E0EA50FC4F808190E0FC01EE0F89
:10575000FF1FE80FF91FEE53FC4F80810E943D159B
:10576000873028F4843028F0282F235003C023E00A
:1057700001C020E030E0801729F42C553A4FF901A0
:10578000908311C0F901E056FA4F9083F901E85572
:10579000FA4F1082F901EE0FFF1FE455FA4F21E096
:1057A00030E0318320831F5F082F8091C1031817D9
:1057B00038F22196E4E00C948D3B80919105813084
:1057C00021F480938F050E94422B08950F931F931D
:1057D000CF93DF93C82FD0E0809195058E010A56B4
:1057E0001A4F8069F801608144E60E948E0FC4560A
:1057F000DA4FF80180818883DF91CF911F910F915B
:1058000008950F931F93CF93DF93CCE9D5E006E97A
:1058100015E08881882349F0809195058068F8011A
:10582000608140E00E948E0F188221960F5F1F4F0B
:10583000F5E0C03ADF0769F7DF91CF911F910F9133
:10584000089580919105813011F410928F050E9486
:10585000012C0895A0E0B0E0E0E3FCE20C946C3B86
:1058600080918F05882309F4B0C080919A058F5FDD
:1058700080939A0580919B058F5F80939B0580366E
:1058800070F080E680939B0580919105882339F420
:1058900010928F050E94012C8CEF0E94E90F8091DD
:1058A0009A05863009F08DC010929A058091900576
:1058B0008823D1F5C4EBD5E010E000E069916623C0
:1058C00011F010929B05600F8FEB92E00E94142361
:1058D0002091B9053091BA052823392321153105C6
:1058E00019F0812F0E94E62B1F5F043211F0045F34
:1058F000E5CF2091B8052F5F2093B8058091B905B9
:105900009091BA05880F991F9093BA058093B905B5
:10591000203109F05AC01092B80581E090E09093D0
:10592000BA058093B90551C070EAC72E75E0D72E2D
:1059300008EA15E0CCEAD5E064EAE62E65E0F62E4A
:10594000BB24D6018D916D018823B9F010929B057F
:10595000F70160819CE0699F602D1124680F8FED35
:1059600093E00E94142328813981282339232115AB
:10597000310519F08B2D0E94E62BD8012C912F5F59
:105980002C9388819981880F991F99838883D701E7
:10599000EC91F0E0E658F74EE4912E1731F4F8015F
:1059A000108281E090E099838883B3940F5F1F4F4A
:1059B00022960894E11CF11CFB2DF43009F0C1CFB4
:1059C00004C0833011F40E94012CCDB7DEB7E9E0AA
:1059D0000C94883B80919105882349F480918F0530
:1059E000882329F088EF0E94E90F0E942A2C08954D
:1059F00080919105813031F480918F05882311F0D9
:105A00000E942A2C0895982F907F903F19F40E94AD
:105A1000720F0895E82FEF70F0E0E554FA4F90818F
:105A2000992311F00E94720F08951F93182F8295E9
:105A30008F7080610E94221F812F8F7080610E9471
:105A4000221F1F910895FF920F931F93CF93DF930F
:105A5000EC01062F440F440F440F842F80640E94F2
:105A6000331F10E083E0000F111F8A95E1F7FF2438
:105A700006C0EC0FFD1F84910E94152DF394EF2DAD
:105A8000F0E0E017F107ACF3CDB7DEB7E5E00C943A
:105A90008C3B0F938BEA97E067E041E00E94232D57
:105AA00085E06FE240E021E000E10E9498180F914C
:105AB000089560930B0670E086E0660F771F8A9565
:105AC000E1F760587D4F8BEC95E040E450E00E9498
:105AD000B23A0895682F843018F480E00E94592D5E
